:020000003A2D97
:0E000600213083120313FD00FD0B07280800B4
:100014000F3083120313FC004730FD00FD0B102842
:0A002400FC0B10280000000008008B
:06002E00000000000800C4
:0E003400F201F101F001F801F30100300800C3
:10004200FB14FB1F2B28FF30F300F200F100F0003D
:08005200FA0DF20CFF3008006A
:10005A0083160313EB1B3428831286133628831264
:10006A00861783166B1B3C28831206133E288312BD
:10007A0006178316EB1A442883128612462883121F
:10008A00861683166B1A4C28831206124E28831280
:10009A00061683165C1854288312061556288312EE
:1000AA0006118615172086118316EB195F2883120D
:1000BA00861361288312861783166B1967288312A1
:1000CA0006136928831206178316EB186F28831202
:1000DA00861271288312861683166B187728831264
:1000EA00061279288312061683165C187F28831253
:1000FA000615812883120611861517208611831684
:0C010A005C1C89280A208A2803200800B9
:100116007B15FB1F95280130F300F201F101F00178
:08012600FA0DF20CFF30080095
:08012E00FA1FF2130030080073
:1001360083120313F801F9011030FC00710DF80D5C
:10014600F90D7408F8027508031C750FF9020318F7
:10015600B3287408F80775080318750FF907031014
:0A016600F00DF10DFC0BA1280800BC
:10017000831603178C1CBE280000B82803136608DA
:10018000831203178D008316031367088312031766
:100190008C0083168C130C150B08F0008B13553054
:1001A0008D00AA308D008C14F01BD8288B13D92811
:0601B0008B170C11080082
:1001B600831603135C106608EB002D2083165C146F
:0201C60008002F
:1001C8007C181A29FC18EB287C193929E428A00185
:1001D8007208031D0B297108F2007008F1007808F5
:1001E800F000F801A0157208031D0B297108F20030
:1001F8007008F100F001A01120167208031D0B29E8
:100208007108F200F101A015720803192D292008C0
:10021800F302031D031C31290310F21B1A29F80DE0
:10022800F00DF10DF20DF30B112931297B1B701C18
:100238003529F81F3529F00A0319F10A0319F20ABA
:10024800031D3529F20CF10CF00CF30A03193929B6
:1002580035290130FC001A203C290230FC008B2093
:100268003C290430FC0097203C290830FC00212060
:04027800000008007A
:10027C0083160313861106110612861206138613B3
:10028C0083128611061186130613861206120A2093
:10029C000A200A20861606168615172086110A20B3
:1002AC008615172086110A208615172086110A201C
:1002BC0006128615172086110A208615172086111E
:1002CC00861286178615172086110A2086130616A5
:1002DC0086151720861106128615172086110A20FE
:1002EC0086151720861106168615172086110A20EA
:1002FC0006128615172086118617061786160616FF
:0E030C008615172086110A2083165C1408003F
:10031A00710DF80DF90D7408F8027508031C750FB4
:10032A00F902F00DF10D0F30FC00710DF80DF90D09
:10033A007408701CA629F8027508031C750FF902C7
:10034A00AB29F80775080318750FF907F00DF10DB9
:10035A00FC0B9A297018B7297408F807750803184E
:08036A00750FF90700000800FF
:100372000E3083120313FD00FD0BBD29000008009F
:1003820083120313FB01FA01F9018030F800F10C2A
:10039200F00C031CD5297408F90775080318750FAA
:1003A200FA070318FB0A0310F01FDD297408FA0785
:1003B20075080318750FFB07FB0CFA0CF90CF80C07
:1003C200031CC8297B08F3007A08F2007908F100BF
:0603D2007808F0000800AD
:1003D80083160313E901053069020318FA2969082D
:1003E8006807840020308000E90AEF296908680757
:1003F80084008001E90369086807EA000A30F4000C
:10040800F5016608F0006708F1009B207808F00005
:100418007908F1003030F00783166A088400700804
:1004280080000A30F400F5016608F0006708F10062
:100438009B2070088316E6007108E70000307106FB
:10044800031D282A00307006031D2B2A2D2AE903D4
:04045800FF29080070
:10045C007B14FB1F392AF201FA1FFF30F200F10066
:0A046C00F000FA0DF20CFF3008005A
:0E0476008312031356088A00550882000800FE
:1004840083120313FB017308031D77080319992AC8
:1004940072087606FA007708F3077E30031C562AA2
:1004A400F30203189C2A592AF302031C9F2A720898
:1004B400F8007108FC007008FD00F817F617031027
:1004C400F201F101F0011830A0007D1C732A7408B8
:1004D400F00775080318750FF10776080318760FEF
:1004E400F207F20CF10CF00CF80CFC0CFD0C0310F0
:1004F400A00B672AF21B832AF80DF00DF10DF20D03
:10050400F3037B1B701C952AF81F952AF00A031924
:10051400F10A0319F20A031D952AF20CF10CF00CEE
:10052400F30A03199C2AFA1FF2130030A12A01309E
:100534001A20A12A02302120A12A04308B20000095
:020544000800AD
:10054600831203137408003A031DB22A7508003A91
:10055600031DB22AFF30F0007F30F1000B2B83120F
:100566000313FD01F901F801710870040319003441
:1005760071087506FA00FA1BFD09FB01F51FC82A6A
:10058600F409F509F40A0319F50AF11FCF2AF0094F
:10059600F109F00A0319F10A71087504FA00FA1B49
:1005A600E42A8D217B18F72AFD1F0034F009F10992
:1005B600F00A0319F10AF809F909F80A0319F90A00
:1005C6000034F51FF32AF11BEF2A7108F9007008B1
:1005D600F800F101F001D72AF101F001F00A003428
:1005E600F109F009FB0AD42AF80A0319F90A740872
:1005F6007802031DD72A75087902031DD72AF90147
:10060600F801F00A0319F10AF11FD72A0000FF3496
:020616000800DA
:1006180083120313F8010830FC00700DF80D7408FC
:10062800F8020318192BF8070310F00DFC0B112B17
:020638000800B8
:10063A0083160313E201E3015D08E4005E08E500A6
:10064A0080305E06F00080307002031D2E2B0030D1
:10065A005D0203183C2B0130E2000030E3005D0824
:10066A00003CE4005E08031C013EE501E502640863
:10067A00E6006508E7005F08E800EC210630E000C4
:10068A000030E1006108003C031D4D2B6008003C6E
:10069A000318682B60085F07F20001306002F0005F
:1006AA000030031C013E6102F10070085F078400FC
:1006BA000008F00072088400700880000130E0022F
:1006CA00031CE103472B5F08840020308000620886
:1006DA0063040319862BE001E10160085F078400C7
:1006EA000008203A031D7D2BE00A0319E10A722B48
:1006FA000130E002031CE10360085F0784002D302B
:04070A008000080063
:10070E00831203139F01C0309F042109F00070086B
:10071E0083169F051F179F175D08F000F00D7010D0
:10072E00F00D7010F00D7010700883129F041F14DE
:10073E00B9211F151F1DA52B0000A12B1F101E0870
:10074E00F100F00183161E08F0040030F1040800D9
:10075E00831203137008F800FB01FC019E30F300B6
:10076E00FA01F201F101F0010230FC00E420080070
:10077E00D12B803083160313DD00E42BC030DD0057
:10078E00E42B9430DD00E42BD430DD00E42B8030FC
:10079E00DD00E42B831603135D08013A0319C02B09
:1007AE005D08023A0319C52B5D08033A0319C82BDD
:1007BE005D08043A0319CB2BCE2B5E03F0005D08C7
:1007CE00F0077008DD007008EB002D2083165C101A
:1007DE00E00160085F07840000080319FE2B600823
:1007EE005F0784000008E600DB20E00AF02B5C14B3
:0207FE000800F1
:1008000083120313FB01FC01FA01730803192D2C59
:10081000FA13F2178630F302F31B112C0319112C73
:100820002F2CF309F30A08307302031C1E2CF3006B
:10083000F20DF2017308031D0310252C7308031930
:10084000252C0310F20CF30B212C7B1B721C2D2C7E
:10085000031C2D2CF20A0319342CF101372C7B14C4
:10086000FB1F3A2CF1013A2C0130FC003C2C0030EB
:10087000FC003C2CFF30FC00FC080319402C2E220D
:060880007208F000080000
:100886003B228A110A128000840AD50A0319D60A65
:08089600F003031D432C0800D0
:10089E00831603135D08831203178D0083168C13C2
:0A08AE000C1483120C08F00008007F
:0C08B80083120313950117129712080019
:1008C40083120313081CA42C0230FB000430FC0028
:1008D400BA30FD00FD0B6C2CFC0B6C2CFB0B6C2C50
:1008E4000000081CA42C5208013A031D8F2CD10AC5
:1008F40054085102031C802C510AD4005108233A95
:10090400031D862C0A30D10002308316E6008312C0
:1009140051088316E700B820A42C8312031352084D
:10092400023A031DA42CD40A5408283A031D9C2C13
:10093400510AD40004308316E60083125408831647
:10094400E700B82083120313881CDF2C0230FB005D
:100954000430FC00BA30FD00FD0BAE2CFC0BAE2CB9
:10096400FB0BAE2C0000881CDF2CD20A0230FB00EB
:100974000430FC00BA30FD00FD0BBE2CFC0BBE2C79
:10098400FB0BBE2C00005208043A031DCB2C013093
:10099400D2000330FB000830FC007730FD00FD0B73
:1009A400D12CFC0BD12CFB0BD12C3E210130EB00C4
:0C09B4002D200C308316EB002D200800D5
:1009C000831203137008F100F0010830FC00710875
:1009D000F40C0318EF2CFC0BE82CF101003403108D
:1009E000F42CF40C0318F107F10CF00CFC0BF12CB7
:0209F0000800FD
:1009F200831603130711831212150C309704080093
:100A0200831603131208013EF000F1010318F10AE4
:100A12005D08F400F501C1210630F2007008F4000F
:100A22007108F500720803191B2DF50CF40CF5136F
:100A3200FF3E142D0430F1007408F0007108031910
:100A4200262DF00D7010FF3E202D30307005F30082
:100A52007408F0007508F100F10CF00CF113F10CC0
:100A6200F00CF113700895000F3097057308970486
:020A720008007A
:100A7400A4268316031307110719422D8710432D4B
:100A840087148718472D0710482D0714831207145D
:100A94008710831688148818512D0810522D0814B5
:100AA4000230DD004F247008FF3A031D5D2D18301D
:100AB4000313D100652D031302308316DD004F2488
:100AC40070080313D1004E30FC00EB30FD00FD0B29
:100AD400692DFC0B692D04308316DD004F2470084A
:100AE400FF3A031D792D20300313D400812D031305
:100AF40004308316DD004F2470080313D4004E30F5
:100B0400FC00EB30FD00FD0B852DFC0B852DD20187
:100B1400D301121492106330831692005C24F924DA
:100B240053088316DD0001253E210130EB002D2002
:100B34000C308316EB002D200230FB000430FC0047
:100B4400BA30FD00FD0BA42DFC0BA42DFB0BA42D32
:100B5400000062245208013A031DCB2D8316DD01E7
:100B6400012501308316DD000130DE002230DF0074
:100B7400BF23831251088316DD00DE01B430DF0089
:100B84001D230230DD000530DE00B430DF00BF235A
:100B94006D2E83125208023A031DEB2D8316DD01DC
:100BA400012501308316DD000130DE004130DF0015
:100BB400BF23831254088316DD00DE01B430DF0046
:100BC4001D230230DD000530DE00B430DF00BF231A
:100BD4006D2E831251085402ED008316DD01872324
:100BE40070088312EF007008003C031CFA2DEF011B
:100BF4006F08F000AF232330F400DB30F5007930C8
:100C0400F6007D30F700422200247008EE007008E0
:100C14008316DD00DE01C830DF001D2383126E0859
:100C2400F0000930F400E0240530F4000030F50051
:100C3400A3222030F0077008EB0070088316DD0053
:100C4400DE01A030DF001D23831253088316DD006C
:100C5400DE015730DF001D230130DD000130DE00EE
:100C64003730DF00BF230130DD000B30DE00C83039
:100C7400DF00BF230230DD000130DE002E30DF0054
:100C8400BF230230DD000B30DE00A030DF00BF23C5
:100C940083126E0851020318692E51086E02F10086
:100CA4007108EC0071086D0203185A2E6D08EC00EF
:100CB4006D08F400FF30F0000C236C08F400E0240D
:100CC4007008D30070088316DD0001256D2ED30152
:0A0CD4008316DD0101259E2D6E2E12
:100D480021308400303083120313F0007430D50052
:080D58000630D6004324080018
:020CE8000F34C7
:100CEA00463441344E3420344F344E342034413467
:080CFA0054343A342034003474
:100D0200463441345234483445344E343A34203433
:020D12000034AB
:100D1400433445344C3443344934553453343A34ED
:040D24002034003443
:100D280048344934473448342034533450344534F3
:100D3800453444342034413454343A342034003473
:02400E004A2F37
:00000001FF
